{
  "abi": [
    {
      "inputs": [
        {
          "internalType": "contract ERC20",
          "name": "_asset",
          "type": "address"
        },
        {
          "internalType": "contract ERC1155m",
          "name": "_cropRegistry",
          "type": "address"
        },
        {
          "internalType": "contract ICropOracle",
          "name": "_cropOracle",
          "type": "address"
        },
        {
          "internalType": "string",
          "name": "_name",
          "type": "string"
        },
        {
          "internalType": "string",
          "name": "_symbol",
          "type": "string"
        }
      ],
      "stateMutability": "nonpayable",
      "type": "constructor"
    },
    {
      "anonymous": false,
      "inputs": [
        {
          "indexed": true,
          "internalType": "address",
          "name": "owner",
          "type": "address"
        },
        {
          "indexed": true,
          "internalType": "address",
          "name": "spender",
          "type": "address"
        },
        {
          "indexed": false,
          "internalType": "uint256",
          "name": "value",
          "type": "uint256"
        }
      ],
      "name": "Approval",
      "type": "event"
    },
    {
      "anonymous": false,
      "inputs": [
        {
          "indexed": false,
          "internalType": "uint256",
          "name": "cropId",
          "type": "uint256"
        },
        {
          "indexed": false,
          "internalType": "uint256",
          "name": "cropAmount",
          "type": "uint256"
        },
        {
          "indexed": false,
          "internalType": "address",
          "name": "recipient",
          "type": "address"
        }
      ],
      "name": "CropsWithdrawn",
      "type": "event"
    },
    {
      "anonymous": false,
      "inputs": [
        {
          "indexed": true,
          "internalType": "address",
          "name": "sender",
          "type": "address"
        },
        {
          "indexed": true,
          "internalType": "address",
          "name": "owner",
          "type": "address"
        },
        {
          "indexed": false,
          "internalType": "uint256",
          "name": "assets",
          "type": "uint256"
        },
        {
          "indexed": false,
          "internalType": "uint256",
          "name": "shares",
          "type": "uint256"
        }
      ],
      "name": "Deposit",
      "type": "event"
    },
    {
      "anonymous": false,
      "inputs": [
        {
          "indexed": false,
          "internalType": "address",
          "name": "seniorInvestor",
          "type": "address"
        },
        {
          "indexed": false,
          "internalType": "bool",
          "name": "isSeniorInvestor",
          "type": "bool"
        }
      ],
      "name": "SeniorInvestorChanged",
      "type": "event"
    },
    {
      "anonymous": false,
      "inputs": [
        {
          "indexed": true,
          "internalType": "address",
          "name": "from",
          "type": "address"
        },
        {
          "indexed": true,
          "internalType": "address",
          "name": "to",
          "type": "address"
        },
        {
          "indexed": false,
          "internalType": "uint256",
          "name": "value",
          "type": "uint256"
        }
      ],
      "name": "Transfer",
      "type": "event"
    },
    {
      "anonymous": false,
      "inputs": [
        {
          "indexed": true,
          "internalType": "address",
          "name": "sender",
          "type": "address"
        },
        {
          "indexed": true,
          "internalType": "address",
          "name": "receiver",
          "type": "address"
        },
        {
          "indexed": true,
          "internalType": "address",
          "name": "owner",
          "type": "address"
        },
        {
          "indexed": false,
          "internalType": "uint256",
          "name": "assets",
          "type": "uint256"
        },
        {
          "indexed": false,
          "internalType": "uint256",
          "name": "shares",
          "type": "uint256"
        }
      ],
      "name": "Withdraw",
      "type": "event"
    },
    {
      "inputs": [],
      "name": "SENIOR_INVESTOR_THRESHOLD",
      "outputs": [
        {
          "internalType": "uint256",
          "name": "",
          "type": "uint256"
        }
      ],
      "stateMutability": "view",
      "type": "function"
    },
    {
      "inputs": [
        {
          "internalType": "address",
          "name": "owner",
          "type": "address"
        },
        {
          "internalType": "address",
          "name": "spender",
          "type": "address"
        }
      ],
      "name": "allowance",
      "outputs": [
        {
          "internalType": "uint256",
          "name": "",
          "type": "uint256"
        }
      ],
      "stateMutability": "view",
      "type": "function"
    },
    {
      "inputs": [
        {
          "internalType": "address",
          "name": "spender",
          "type": "address"
        },
        {
          "internalType": "uint256",
          "name": "amount",
          "type": "uint256"
        }
      ],
      "name": "approve",
      "outputs": [
        {
          "internalType": "bool",
          "name": "",
          "type": "bool"
        }
      ],
      "stateMutability": "nonpayable",
      "type": "function"
    },
    {
      "inputs": [],
      "name": "asset",
      "outputs": [
        {
          "internalType": "address",
          "name": "",
          "type": "address"
        }
      ],
      "stateMutability": "view",
      "type": "function"
    },
    {
      "inputs": [
        {
          "internalType": "address",
          "name": "account",
          "type": "address"
        }
      ],
      "name": "balanceOf",
      "outputs": [
        {
          "internalType": "uint256",
          "name": "",
          "type": "uint256"
        }
      ],
      "stateMutability": "view",
      "type": "function"
    },
    {
      "inputs": [
        {
          "internalType": "uint256",
          "name": "shares",
          "type": "uint256"
        }
      ],
      "name": "convertToAssets",
      "outputs": [
        {
          "internalType": "uint256",
          "name": "assets",
          "type": "uint256"
        }
      ],
      "stateMutability": "view",
      "type": "function"
    },
    {
      "inputs": [
        {
          "internalType": "uint256",
          "name": "assets",
          "type": "uint256"
        }
      ],
      "name": "convertToShares",
      "outputs": [
        {
          "internalType": "uint256",
          "name": "shares",
          "type": "uint256"
        }
      ],
      "stateMutability": "view",
      "type": "function"
    },
    {
      "inputs": [],
      "name": "cropOracle",
      "outputs": [
        {
          "internalType": "contract ICropOracle",
          "name": "",
          "type": "address"
        }
      ],
      "stateMutability": "view",
      "type": "function"
    },
    {
      "inputs": [],
      "name": "cropRegistry",
      "outputs": [
        {
          "internalType": "contract ERC1155m",
          "name": "",
          "type": "address"
        }
      ],
      "stateMutability": "view",
      "type": "function"
    },
    {
      "inputs": [],
      "name": "decimals",
      "outputs": [
        {
          "internalType": "uint8",
          "name": "",
          "type": "uint8"
        }
      ],
      "stateMutability": "view",
      "type": "function"
    },
    {
      "inputs": [
        {
          "internalType": "address",
          "name": "spender",
          "type": "address"
        },
        {
          "internalType": "uint256",
          "name": "subtractedValue",
          "type": "uint256"
        }
      ],
      "name": "decreaseAllowance",
      "outputs": [
        {
          "internalType": "bool",
          "name": "",
          "type": "bool"
        }
      ],
      "stateMutability": "nonpayable",
      "type": "function"
    },
    {
      "inputs": [
        {
          "internalType": "uint256",
          "name": "assets",
          "type": "uint256"
        },
        {
          "internalType": "address",
          "name": "receiver",
          "type": "address"
        }
      ],
      "name": "deposit",
      "outputs": [
        {
          "internalType": "uint256",
          "name": "",
          "type": "uint256"
        }
      ],
      "stateMutability": "nonpayable",
      "type": "function"
    },
    {
      "inputs": [
        {
          "internalType": "address",
          "name": "spender",
          "type": "address"
        },
        {
          "internalType": "uint256",
          "name": "addedValue",
          "type": "uint256"
        }
      ],
      "name": "increaseAllowance",
      "outputs": [
        {
          "internalType": "bool",
          "name": "",
          "type": "bool"
        }
      ],
      "stateMutability": "nonpayable",
      "type": "function"
    },
    {
      "inputs": [
        {
          "internalType": "address",
          "name": "investor",
          "type": "address"
        }
      ],
      "name": "investorShares",
      "outputs": [
        {
          "internalType": "uint256",
          "name": "",
          "type": "uint256"
        }
      ],
      "stateMutability": "view",
      "type": "function"
    },
    {
      "inputs": [
        {
          "internalType": "address",
          "name": "farmer",
          "type": "address"
        }
      ],
      "name": "loanAmounts",
      "outputs": [
        {
          "internalType": "uint256",
          "name": "assets",
          "type": "uint256"
        }
      ],
      "stateMutability": "view",
      "type": "function"
    },
    {
      "inputs": [
        {
          "internalType": "address",
          "name": "farmer",
          "type": "address"
        },
        {
          "internalType": "uint256",
          "name": "assets",
          "type": "uint256"
        },
        {
          "components": [
            {
              "internalType": "uint256",
              "name": "cropId",
              "type": "uint256"
            },
            {
              "internalType": "uint256",
              "name": "cropAmount",
              "type": "uint256"
            }
          ],
          "internalType": "struct CropBatch[]",
          "name": "crops",
          "type": "tuple[]"
        }
      ],
      "name": "loanFunds",
      "outputs": [],
      "stateMutability": "nonpayable",
      "type": "function"
    },
    {
      "inputs": [
        {
          "internalType": "address",
          "name": "",
          "type": "address"
        }
      ],
      "name": "maxDeposit",
      "outputs": [
        {
          "internalType": "uint256",
          "name": "",
          "type": "uint256"
        }
      ],
      "stateMutability": "view",
      "type": "function"
    },
    {
      "inputs": [
        {
          "internalType": "address",
          "name": "",
          "type": "address"
        }
      ],
      "name": "maxMint",
      "outputs": [
        {
          "internalType": "uint256",
          "name": "",
          "type": "uint256"
        }
      ],
      "stateMutability": "view",
      "type": "function"
    },
    {
      "inputs": [
        {
          "internalType": "address",
          "name": "owner",
          "type": "address"
        }
      ],
      "name": "maxRedeem",
      "outputs": [
        {
          "internalType": "uint256",
          "name": "",
          "type": "uint256"
        }
      ],
      "stateMutability": "view",
      "type": "function"
    },
    {
      "inputs": [
        {
          "internalType": "address",
          "name": "owner",
          "type": "address"
        }
      ],
      "name": "maxWithdraw",
      "outputs": [
        {
          "internalType": "uint256",
          "name": "",
          "type": "uint256"
        }
      ],
      "stateMutability": "view",
      "type": "function"
    },
    {
      "inputs": [
        {
          "internalType": "uint256",
          "name": "shares",
          "type": "uint256"
        },
        {
          "internalType": "address",
          "name": "receiver",
          "type": "address"
        }
      ],
      "name": "mint",
      "outputs": [
        {
          "internalType": "uint256",
          "name": "",
          "type": "uint256"
        }
      ],
      "stateMutability": "nonpayable",
      "type": "function"
    },
    {
      "inputs": [],
      "name": "name",
      "outputs": [
        {
          "internalType": "string",
          "name": "",
          "type": "string"
        }
      ],
      "stateMutability": "view",
      "type": "function"
    },
    {
      "inputs": [
        {
          "internalType": "address",
          "name": "",
          "type": "address"
        },
        {
          "internalType": "address",
          "name": "",
          "type": "address"
        },
        {
          "internalType": "uint256[]",
          "name": "",
          "type": "uint256[]"
        },
        {
          "internalType": "uint256[]",
          "name": "",
          "type": "uint256[]"
        },
        {
          "internalType": "bytes",
          "name": "",
          "type": "bytes"
        }
      ],
      "name": "onERC1155BatchReceived",
      "outputs": [
        {
          "internalType": "bytes4",
          "name": "",
          "type": "bytes4"
        }
      ],
      "stateMutability": "nonpayable",
      "type": "function"
    },
    {
      "inputs": [
        {
          "internalType": "address",
          "name": "",
          "type": "address"
        },
        {
          "internalType": "address",
          "name": "",
          "type": "address"
        },
        {
          "internalType": "uint256",
          "name": "",
          "type": "uint256"
        },
        {
          "internalType": "uint256",
          "name": "",
          "type": "uint256"
        },
        {
          "internalType": "bytes",
          "name": "",
          "type": "bytes"
        }
      ],
      "name": "onERC1155Received",
      "outputs": [
        {
          "internalType": "bytes4",
          "name": "",
          "type": "bytes4"
        }
      ],
      "stateMutability": "nonpayable",
      "type": "function"
    },
    {
      "inputs": [
        {
          "internalType": "uint256",
          "name": "assets",
          "type": "uint256"
        }
      ],
      "name": "previewDeposit",
      "outputs": [
        {
          "internalType": "uint256",
          "name": "",
          "type": "uint256"
        }
      ],
      "stateMutability": "view",
      "type": "function"
    },
    {
      "inputs": [
        {
          "internalType": "uint256",
          "name": "shares",
          "type": "uint256"
        }
      ],
      "name": "previewMint",
      "outputs": [
        {
          "internalType": "uint256",
          "name": "",
          "type": "uint256"
        }
      ],
      "stateMutability": "view",
      "type": "function"
    },
    {
      "inputs": [
        {
          "internalType": "uint256",
          "name": "shares",
          "type": "uint256"
        }
      ],
      "name": "previewRedeem",
      "outputs": [
        {
          "internalType": "uint256",
          "name": "",
          "type": "uint256"
        }
      ],
      "stateMutability": "view",
      "type": "function"
    },
    {
      "inputs": [
        {
          "internalType": "uint256",
          "name": "assets",
          "type": "uint256"
        }
      ],
      "name": "previewWithdraw",
      "outputs": [
        {
          "internalType": "uint256",
          "name": "",
          "type": "uint256"
        }
      ],
      "stateMutability": "view",
      "type": "function"
    },
    {
      "inputs": [
        {
          "internalType": "uint256",
          "name": "shares",
          "type": "uint256"
        },
        {
          "internalType": "address",
          "name": "receiver",
          "type": "address"
        },
        {
          "internalType": "address",
          "name": "owner",
          "type": "address"
        }
      ],
      "name": "redeem",
      "outputs": [
        {
          "internalType": "uint256",
          "name": "",
          "type": "uint256"
        }
      ],
      "stateMutability": "nonpayable",
      "type": "function"
    },
    {
      "inputs": [
        {
          "components": [
            {
              "internalType": "uint256",
              "name": "cropId",
              "type": "uint256"
            },
            {
              "internalType": "uint256",
              "name": "cropAmount",
              "type": "uint256"
            }
          ],
          "internalType": "struct CropBatch[]",
          "name": "crops",
          "type": "tuple[]"
        },
        {
          "internalType": "address",
          "name": "buyer",
          "type": "address"
        }
      ],
      "name": "sellCrops",
      "outputs": [],
      "stateMutability": "nonpayable",
      "type": "function"
    },
    {
      "inputs": [],
      "name": "seniorInvestors",
      "outputs": [
        {
          "internalType": "address[]",
          "name": "",
          "type": "address[]"
        }
      ],
      "stateMutability": "view",
      "type": "function"
    },
    {
      "inputs": [
        {
          "internalType": "bytes4",
          "name": "interfaceId",
          "type": "bytes4"
        }
      ],
      "name": "supportsInterface",
      "outputs": [
        {
          "internalType": "bool",
          "name": "",
          "type": "bool"
        }
      ],
      "stateMutability": "view",
      "type": "function"
    },
    {
      "inputs": [],
      "name": "symbol",
      "outputs": [
        {
          "internalType": "string",
          "name": "",
          "type": "string"
        }
      ],
      "stateMutability": "view",
      "type": "function"
    },
    {
      "inputs": [],
      "name": "totalAssets",
      "outputs": [
        {
          "internalType": "uint256",
          "name": "",
          "type": "uint256"
        }
      ],
      "stateMutability": "view",
      "type": "function"
    },
    {
      "inputs": [],
      "name": "totalSupply",
      "outputs": [
        {
          "internalType": "uint256",
          "name": "",
          "type": "uint256"
        }
      ],
      "stateMutability": "view",
      "type": "function"
    },
    {
      "inputs": [
        {
          "internalType": "address",
          "name": "to",
          "type": "address"
        },
        {
          "internalType": "uint256",
          "name": "amount",
          "type": "uint256"
        }
      ],
      "name": "transfer",
      "outputs": [
        {
          "internalType": "bool",
          "name": "",
          "type": "bool"
        }
      ],
      "stateMutability": "nonpayable",
      "type": "function"
    },
    {
      "inputs": [
        {
          "internalType": "address",
          "name": "from",
          "type": "address"
        },
        {
          "internalType": "address",
          "name": "to",
          "type": "address"
        },
        {
          "internalType": "uint256",
          "name": "amount",
          "type": "uint256"
        }
      ],
      "name": "transferFrom",
      "outputs": [
        {
          "internalType": "bool",
          "name": "",
          "type": "bool"
        }
      ],
      "stateMutability": "nonpayable",
      "type": "function"
    },
    {
      "inputs": [
        {
          "internalType": "uint256",
          "name": "assets",
          "type": "uint256"
        },
        {
          "internalType": "address",
          "name": "receiver",
          "type": "address"
        },
        {
          "internalType": "address",
          "name": "owner",
          "type": "address"
        }
      ],
      "name": "withdraw",
      "outputs": [
        {
          "internalType": "uint256",
          "name": "",
          "type": "uint256"
        }
      ],
      "stateMutability": "nonpayable",
      "type": "function"
    }
  ],
  "bytecode": {
    "object": "0x6101006040523480156200001257600080fd5b5060405162002a1338038062002a13833981016040819052620000359162000274565b8482826003620000468382620003ae565b506004620000558282620003ae565b5050506000806200006c83620000a960201b60201c565b91509150816200007e57601262000080565b805b60ff1660a05250506001600160a01b0390811660805293841660c05250501660e05250620004b2565b60408051600481526024810182526020810180516001600160e01b031663313ce56760e01b17905290516000918291829182916001600160a01b03871691620000f2916200047a565b600060405180830381855afa9150503d80600081146200012f576040519150601f19603f3d011682016040523d82523d6000602084013e62000134565b606091505b50915091508180156200014957506020815110155b15620001815760008180602001905181019062000167919062000498565b905060ff81116200017f576001969095509350505050565b505b5060009485945092505050565b6001600160a01b0381168114620001a457600080fd5b50565b634e487b7160e01b600052604160045260246000fd5b60005b83811015620001da578181015183820152602001620001c0565b50506000910152565b600082601f830112620001f557600080fd5b81516001600160401b0380821115620002125762000212620001a7565b604051601f8301601f19908116603f011681019082821181831017156200023d576200023d620001a7565b816040528381528660208588010111156200025757600080fd5b6200026a846020830160208901620001bd565b9695505050505050565b600080600080600060a086880312156200028d57600080fd5b85516200029a816200018e565b6020870151909550620002ad816200018e565b6040870151909450620002c0816200018e565b60608701519093506001600160401b0380821115620002de57600080fd5b620002ec89838a01620001e3565b935060808801519150808211156200030357600080fd5b506200031288828901620001e3565b9150509295509295909350565b600181811c908216806200033457607f821691505b6020821081036200035557634e487b7160e01b600052602260045260246000fd5b50919050565b601f821115620003a957600081815260208120601f850160051c81016020861015620003845750805b601f850160051c820191505b81811015620003a55782815560010162000390565b5050505b505050565b81516001600160401b03811115620003ca57620003ca620001a7565b620003e281620003db84546200031f565b846200035b565b602080601f8311600181146200041a5760008415620004015750858301515b600019600386901b1c1916600185901b178555620003a5565b600085815260208120601f198616915b828110156200044b578886015182559484019460019091019084016200042a565b50858210156200046a5787850151600019600388901b60f8161c191681555b5050505050600190811b01905550565b600082516200048e818460208701620001bd565b9190910192915050565b600060208284031215620004ab57600080fd5b5051919050565b60805160a05160c05160e0516124ef62000524600039600081816103d8015261129401526000818161046f0152818161085f0152610b0d015260006102e5015260008181610311015281816105c2015281816108e101528181610bae015281816115dd01526116d301526124ef6000f3fe608060405234801561001057600080fd5b50600436106102325760003560e01c806394bf804d11610130578063bc197c81116100b8578063d3690b6a1161007c578063d3690b6a14610552578063d905777e14610565578063dd62ed3e14610578578063ef8b30f71461052c578063f23a6e611461058b57600080fd5b8063bc197c81146104ca578063c48c3cbb14610502578063c63d75b614610517578063c6e6f5921461052c578063ce96cb771461053f57600080fd5b8063a9059cbb116100ff578063a9059cbb14610457578063ad82ab171461046a578063b3d7f6b914610491578063b460af94146104a4578063ba087652146104b757600080fd5b806394bf804d1461041a57806395d89b411461042d578063a457c2d714610435578063a58245411461044857600080fd5b806338d52e0f116101be5780636e553f65116101825780636e553f651461038457806370a0823114610397578063802acf0c146103c057806384caacfa146103d35780638f78e2f0146103fa57600080fd5b806338d52e0f1461030f5780633950935114610349578063402d267d1461035c57806343e6de5b1461036f5780634cdad5061461028a57600080fd5b8063095ea7b311610205578063095ea7b31461029d5780630a28a477146102b057806318160ddd146102c357806323b872dd146102cb578063313ce567146102de57600080fd5b806301e1d1141461023757806301ffc9a71461025257806306fdde031461027557806307a2d13a1461028a575b600080fd5b61023f6105aa565b6040519081526020015b60405180910390f35b610265610260366004611d94565b61063a565b6040519015158152602001610249565b61027d610671565b6040516102499190611de2565b61023f610298366004611e15565b610703565b6102656102ab366004611e4a565b610710565b61023f6102be366004611e15565b610728565b60025461023f565b6102656102d9366004611e74565b610735565b60405160ff7f0000000000000000000000000000000000000000000000000000000000000000168152602001610249565b7f00000000000000000000000000000000000000000000000000000000000000005b6040516001600160a01b039091168152602001610249565b610265610357366004611e4a565b61075b565b61023f61036a366004611eb0565b61077d565b61038261037d366004611fee565b61079b565b005b61023f61039236600461203c565b610981565b61023f6103a5366004611eb0565b6001600160a01b031660009081526020819052604090205490565b6103826103ce36600461205f565b6109f4565b6103317f000000000000000000000000000000000000000000000000000000000000000081565b61023f610408366004611eb0565b60076020526000908152604090205481565b61023f61042836600461203c565b610c49565b61027d610c63565b610265610443366004611e4a565b610c72565b61023f67016345785d8a000081565b610265610465366004611e4a565b610cf8565b6103317f000000000000000000000000000000000000000000000000000000000000000081565b61023f61049f366004611e15565b610d06565b61023f6104b23660046120b6565b610d13565b61023f6104c53660046120b6565b610d8f565b6104e96104d83660046121bd565b63bc197c8160e01b95945050505050565b6040516001600160e01b03199091168152602001610249565b61050a610e03565b6040516102499190612267565b61023f610525366004611eb0565b5060001990565b61023f61053a366004611e15565b610e0f565b61023f61054d366004611eb0565b610e1c565b61023f610560366004611eb0565b610e40565b61023f610573366004611eb0565b610e4b565b61023f6105863660046122b4565b610e69565b6104e96105993660046122de565b63f23a6e6160e01b95945050505050565b6040516370a0823160e01b81523060048201526000907f00000000000000000000000000000000000000000000000000000000000000006001600160a01b0316906370a0823190602401602060405180830381865afa158015610611573d6000803e3d6000fd5b505050506040513d601f19601f820116820180604052508101906106359190612343565b905090565b60006001600160e01b03198216630271189760e51b148061066b57506301ffc9a760e01b6001600160e01b03198316145b92915050565b6060600380546106809061235c565b80601f01602080910402602001604051908101604052809291908181526020018280546106ac9061235c565b80156106f95780601f106106ce576101008083540402835291602001916106f9565b820191906000526020600020905b8154815290600101906020018083116106dc57829003601f168201915b5050505050905090565b600061066b826000610e94565b60003361071e818585610ec7565b5060019392505050565b600061066b826001610feb565b60003361074385828561101d565b61074e858585611091565b60019150505b9392505050565b60003361071e81858561076e8383610e69565b61077891906123ac565b610ec7565b6000610787611235565b61079257600061066b565b60001992915050565b6107a660053361124f565b6107f75760405162461bcd60e51b815260206004820152601f60248201527f43726f705661756c743a206f6e6c792073656e696f7220696e766573746f720060448201526064015b60405180910390fd5b6000805b83518110156108de576000848281518110610818576108186123bf565b6020026020010151905061083481600001518260200151611271565b61083e90846123ac565b81516020830151604051637921219560e11b81529295506001600160a01b037f0000000000000000000000000000000000000000000000000000000000000000169263f242432a926108989230928a9291906004016123d5565b600060405180830381600087803b1580156108b257600080fd5b505af11580156108c6573d6000803e3d6000fd5b505050505080806108d69061240d565b9150506107fb565b507f00000000000000000000000000000000000000000000000000000000000000006040516323b872dd60e01b81526001600160a01b0384811660048301523060248301526044820184905291909116906323b872dd906064016020604051808303816000875af1158015610957573d6000803e3d6000fd5b505050506040513d601f19601f8201168201806040525081019061097b9190612426565b50505050565b600061098c8261077d565b8311156109db5760405162461bcd60e51b815260206004820152601e60248201527f455243343632363a206465706f736974206d6f7265207468616e206d6178000060448201526064016107ee565b60006109e684610e0f565b905061075433848684611314565b6000805b8251811015610a6357610a45838281518110610a1657610a166123bf565b602002602001015160000151848381518110610a3457610a346123bf565b602002602001015160200151611271565b610a4f90836123ac565b915080610a5b8161240d565b9150506109f8565b50610a6d816113a7565b82811015610ac85760405162461bcd60e51b815260206004820152602260248201527f43726f705661756c743a20696e73756666696369656e7420636f6c6c61746572604482015261185b60f21b60648201526084016107ee565b6001600160a01b03841660009081526007602052604081208490555b8251811015610bab576000838281518110610b0157610b016123bf565b602002602001015190507f00000000000000000000000000000000000000000000000000000000000000006001600160a01b031663f242432a8730846000015185602001516040518563ffffffff1660e01b8152600401610b6594939291906123d5565b600060405180830381600087803b158015610b7f57600080fd5b505af1158015610b93573d6000803e3d6000fd5b50505050508080610ba39061240d565b915050610ae4565b507f000000000000000000000000000000000000000000000000000000000000000060405163a9059cbb60e01b81526001600160a01b03868116600483015260248201869052919091169063a9059cbb906044016020604051808303816000875af1158015610c1e573d6000803e3d6000fd5b505050506040513d601f19601f82011682018060405250810190610c429190612426565b5050505050565b600080610c5584610d06565b905061075433848387611314565b6060600480546106809061235c565b60003381610c808286610e69565b905083811015610ce05760405162461bcd60e51b815260206004820152602560248201527f45524332303a2064656372656173656420616c6c6f77616e63652062656c6f77604482015264207a65726f60d81b60648201526084016107ee565b610ced8286868403610ec7565b506001949350505050565b60003361071e818585611091565b600061066b826001610e94565b6000610d1e82610e1c565b841115610d6d5760405162461bcd60e51b815260206004820152601f60248201527f455243343632363a207769746864726177206d6f7265207468616e206d61780060448201526064016107ee565b6000610d7885610728565b9050610d8733858588856113ef565b949350505050565b6000610d9a82610e4b565b841115610de95760405162461bcd60e51b815260206004820152601d60248201527f455243343632363a2072656465656d206d6f7265207468616e206d617800000060448201526064016107ee565b6000610df485610703565b9050610d8733858584896113ef565b60606106356005611483565b600061066b826000610feb565b6001600160a01b03811660009081526020819052604081205461066b906000610e94565b600061066b82611490565b6001600160a01b03811660009081526020819052604081205461066b565b6001600160a01b03918216600090815260016020908152604080832093909416825291909152205490565b600080610ea060025490565b90508015610ec157610ebc610eb36105aa565b859083866114c7565b610d87565b83610d87565b6001600160a01b038316610f295760405162461bcd60e51b8152602060048201526024808201527f45524332303a20617070726f76652066726f6d20746865207a65726f206164646044820152637265737360e01b60648201526084016107ee565b6001600160a01b038216610f8a5760405162461bcd60e51b815260206004820152602260248201527f45524332303a20617070726f766520746f20746865207a65726f206164647265604482015261737360f01b60648201526084016107ee565b6001600160a01b0383811660008181526001602090815260408083209487168084529482529182902085905590518481527f8c5be1e5ebec7d5bd14f71427d1e84f3dd0314c0f7b2291e5b200ac8c7c3b925910160405180910390a3505050565b600080610ff760025490565b9050831580611004575080155b610ec157610ebc816110146105aa565b869190866114c7565b60006110298484610e69565b9050600019811461097b57818110156110845760405162461bcd60e51b815260206004820152601d60248201527f45524332303a20696e73756666696369656e7420616c6c6f77616e636500000060448201526064016107ee565b61097b8484848403610ec7565b6001600160a01b0383166110f55760405162461bcd60e51b815260206004820152602560248201527f45524332303a207472616e736665722066726f6d20746865207a65726f206164604482015264647265737360d81b60648201526084016107ee565b6001600160a01b0382166111575760405162461bcd60e51b815260206004820152602360248201527f45524332303a207472616e7366657220746f20746865207a65726f206164647260448201526265737360e81b60648201526084016107ee565b6001600160a01b038316600090815260208190526040902054818110156111cf5760405162461bcd60e51b815260206004820152602660248201527f45524332303a207472616e7366657220616d6f756e7420657863656564732062604482015265616c616e636560d01b60648201526084016107ee565b6001600160a01b03848116600081815260208181526040808320878703905593871680835291849020805487019055925185815290927fddf252ad1be2c89b69c2b068fc378daa952ba7f163c4a11628f55a4df523b3ef910160405180910390a361097b565b6000806112406105aa565b11806106355750506002541590565b6001600160a01b03811660009081526001830160205260408120541515610754565b6040516326a49e3760e01b81526004810183905260009081906001600160a01b037f000000000000000000000000000000000000000000000000000000000000000016906326a49e3790602401602060405180830381865afa1580156112db573d6000803e3d6000fd5b505050506040513d601f19601f820116820180604052508101906112ff9190612343565b9050610d878184670de0b6b3a7640000611529565b600061132160058661124f565b905061132f858585856115d8565b8015801561134d575067016345785d8a000061134a86611490565b10155b15610c425761135d60058661166a565b50604080516001600160a01b0387168152600160208201527f4ea3313c991b92bf48ac5647ef9af3a04117ea80c332f8939a56c9b89925e485910160405180910390a15050505050565b6113ec816040516024016113bd91815260200190565b60408051601f198184030181529190526020810180516001600160e01b031663f5b1bba960e01b17905261167f565b50565b60006113fc60058561124f565b905061140b86868686866116a0565b808015611427575067016345785d8a000061142585611490565b105b1561147b57611437600585611760565b50604080516001600160a01b0386168152600060208201527f4ea3313c991b92bf48ac5647ef9af3a04117ea80c332f8939a56c9b89925e485910160405180910390a15b505050505050565b6060600061075483611775565b600061066b670de0b6b3a76400006114a760025490565b6001600160a01b0385166000908152602081905260409020549190611529565b6000806114d5868686611529565b905060018360028111156114eb576114eb612448565b1480156115085750600084806115035761150361245e565b868809115b1561151b576115186001826123ac565b90505b95945050505050565b505050565b6000808060001985870985870292508281108382030391505080600003611563578382816115595761155961245e565b0492505050610754565b80841161156f57600080fd5b60008486880960026001871981018816978890046003810283188082028403028082028403028082028403028082028403028082028403029081029092039091026000889003889004909101858311909403939093029303949094049190911702949350505050565b6116047f00000000000000000000000000000000000000000000000000000000000000008530856117d1565b61160e838261183c565b826001600160a01b0316846001600160a01b03167fdcbc1c05240f31ff3ad067ef1ee35ce4997762752e3a095284754544f4c709d7848460405161165c929190918252602082015260400190565b60405180910390a350505050565b6000610754836001600160a01b0384166118fb565b80516a636f6e736f6c652e6c6f67602083016000808483855afa5050505050565b826001600160a01b0316856001600160a01b0316146116c4576116c483868361101d565b6116ce838261194a565b6116f97f00000000000000000000000000000000000000000000000000000000000000008584611a7c565b826001600160a01b0316846001600160a01b0316866001600160a01b03167ffbde797d201c681b91056529119e0b02407c7bb96a4a2c75c01fc9667232c8db8585604051611751929190918252602082015260400190565b60405180910390a45050505050565b6000610754836001600160a01b038416611aac565b6060816000018054806020026020016040519081016040528092919081815260200182805480156117c557602002820191906000526020600020905b8154815260200190600101908083116117b1575b50505050509050919050565b6040516001600160a01b038085166024830152831660448201526064810182905261097b9085906323b872dd60e01b906084015b60408051601f198184030181529190526020810180516001600160e01b03166001600160e01b031990931692909217909152611b9f565b6001600160a01b0382166118925760405162461bcd60e51b815260206004820152601f60248201527f45524332303a206d696e7420746f20746865207a65726f20616464726573730060448201526064016107ee565b80600260008282546118a491906123ac565b90915550506001600160a01b038216600081815260208181526040808320805486019055518481527fddf252ad1be2c89b69c2b068fc378daa952ba7f163c4a11628f55a4df523b3ef910160405180910390a35050565b60008181526001830160205260408120546119425750815460018181018455600084815260208082209093018490558454848252828601909352604090209190915561066b565b50600061066b565b6001600160a01b0382166119aa5760405162461bcd60e51b815260206004820152602160248201527f45524332303a206275726e2066726f6d20746865207a65726f206164647265736044820152607360f81b60648201526084016107ee565b6001600160a01b03821660009081526020819052604090205481811015611a1e5760405162461bcd60e51b815260206004820152602260248201527f45524332303a206275726e20616d6f756e7420657863656564732062616c616e604482015261636560f01b60648201526084016107ee565b6001600160a01b0383166000818152602081815260408083208686039055600280548790039055518581529192917fddf252ad1be2c89b69c2b068fc378daa952ba7f163c4a11628f55a4df523b3ef910160405180910390a3505050565b6040516001600160a01b03831660248201526044810182905261152490849063a9059cbb60e01b90606401611805565b60008181526001830160205260408120548015611b95576000611ad0600183612474565b8554909150600090611ae490600190612474565b9050818114611b49576000866000018281548110611b0457611b046123bf565b9060005260206000200154905080876000018481548110611b2757611b276123bf565b6000918252602080832090910192909255918252600188019052604090208390555b8554869080611b5a57611b5a612487565b60019003818190600052602060002001600090559055856001016000868152602001908152602001600020600090556001935050505061066b565b600091505061066b565b6000611bf4826040518060400160405280602081526020017f5361666545524332303a206c6f772d6c6576656c2063616c6c206661696c6564815250856001600160a01b0316611c719092919063ffffffff16565b8051909150156115245780806020019051810190611c129190612426565b6115245760405162461bcd60e51b815260206004820152602a60248201527f5361666545524332303a204552433230206f7065726174696f6e20646964206e6044820152691bdd081cdd58d8d9595960b21b60648201526084016107ee565b6060610d87848460008585600080866001600160a01b03168587604051611c98919061249d565b60006040518083038185875af1925050503d8060008114611cd5576040519150601f19603f3d011682016040523d82523d6000602084013e611cda565b606091505b5091509150611ceb87838387611cf6565b979650505050505050565b60608315611d65578251600003611d5e576001600160a01b0385163b611d5e5760405162461bcd60e51b815260206004820152601d60248201527f416464726573733a2063616c6c20746f206e6f6e2d636f6e747261637400000060448201526064016107ee565b5081610d87565b610d878383815115611d7a5781518083602001fd5b8060405162461bcd60e51b81526004016107ee9190611de2565b600060208284031215611da657600080fd5b81356001600160e01b03198116811461075457600080fd5b60005b83811015611dd9578181015183820152602001611dc1565b50506000910152565b6020815260008251806020840152611e01816040850160208701611dbe565b601f01601f19169190910160400192915050565b600060208284031215611e2757600080fd5b5035919050565b80356001600160a01b0381168114611e4557600080fd5b919050565b60008060408385031215611e5d57600080fd5b611e6683611e2e565b946020939093013593505050565b600080600060608486031215611e8957600080fd5b611e9284611e2e565b9250611ea060208501611e2e565b9150604084013590509250925092565b600060208284031215611ec257600080fd5b61075482611e2e565b634e487b7160e01b600052604160045260246000fd5b6040805190810167ffffffffffffffff81118282101715611f0457611f04611ecb565b60405290565b604051601f8201601f1916810167ffffffffffffffff81118282101715611f3357611f33611ecb565b604052919050565b600067ffffffffffffffff821115611f5557611f55611ecb565b5060051b60200190565b600082601f830112611f7057600080fd5b81356020611f85611f8083611f3b565b611f0a565b82815260069290921b84018101918181019086841115611fa457600080fd5b8286015b84811015611fe35760408189031215611fc15760008081fd5b611fc9611ee1565b813581528482013585820152835291830191604001611fa8565b509695505050505050565b6000806040838503121561200157600080fd5b823567ffffffffffffffff81111561201857600080fd5b61202485828601611f5f565b92505061203360208401611e2e565b90509250929050565b6000806040838503121561204f57600080fd5b8235915061203360208401611e2e565b60008060006060848603121561207457600080fd5b61207d84611e2e565b925060208401359150604084013567ffffffffffffffff8111156120a057600080fd5b6120ac86828701611f5f565b9150509250925092565b6000806000606084860312156120cb57600080fd5b833592506120db60208501611e2e565b91506120e960408501611e2e565b90509250925092565b600082601f83011261210357600080fd5b81356020612113611f8083611f3b565b82815260059290921b8401810191818101908684111561213257600080fd5b8286015b84811015611fe35780358352918301918301612136565b600082601f83011261215e57600080fd5b813567ffffffffffffffff81111561217857612178611ecb565b61218b601f8201601f1916602001611f0a565b8181528460208386010111156121a057600080fd5b816020850160208301376000918101602001919091529392505050565b600080600080600060a086880312156121d557600080fd5b6121de86611e2e565b94506121ec60208701611e2e565b9350604086013567ffffffffffffffff8082111561220957600080fd5b61221589838a016120f2565b9450606088013591508082111561222b57600080fd5b61223789838a016120f2565b9350608088013591508082111561224d57600080fd5b5061225a8882890161214d565b9150509295509295909350565b6020808252825182820181905260009190848201906040850190845b818110156122a85783516001600160a01b031683529284019291840191600101612283565b50909695505050505050565b600080604083850312156122c757600080fd5b6122d083611e2e565b915061203360208401611e2e565b600080600080600060a086880312156122f657600080fd5b6122ff86611e2e565b945061230d60208701611e2e565b93506040860135925060608601359150608086013567ffffffffffffffff81111561233757600080fd5b61225a8882890161214d565b60006020828403121561235557600080fd5b5051919050565b600181811c9082168061237057607f821691505b60208210810361239057634e487b7160e01b600052602260045260246000fd5b50919050565b634e487b7160e01b600052601160045260246000fd5b8082018082111561066b5761066b612396565b634e487b7160e01b600052603260045260246000fd5b6001600160a01b0394851681529290931660208301526040820152606081019190915260a06080820181905260009082015260c00190565b60006001820161241f5761241f612396565b5060010190565b60006020828403121561243857600080fd5b8151801515811461075457600080fd5b634e487b7160e01b600052602160045260246000fd5b634e487b7160e01b600052601260045260246000fd5b8181038181111561066b5761066b612396565b634e487b7160e01b600052603160045260246000fd5b600082516124af818460208701611dbe565b919091019291505056fea26469706673582212200e0adbcfdd18f063e84922cbf961afd8d6860c259c8f87ee3a9911548d6dc8f064736f6c63430008130033",
    "linkReferences": {}
  },
  "methodIdentifiers": {
    "SENIOR_INVESTOR_THRESHOLD()": "a5824541",
    "allowance(address,address)": "dd62ed3e",
    "approve(address,uint256)": "095ea7b3",
    "asset()": "38d52e0f",
    "balanceOf(address)": "70a08231",
    "convertToAssets(uint256)": "07a2d13a",
    "convertToShares(uint256)": "c6e6f592",
    "cropOracle()": "84caacfa",
    "cropRegistry()": "ad82ab17",
    "decimals()": "313ce567",
    "decreaseAllowance(address,uint256)": "a457c2d7",
    "deposit(uint256,address)": "6e553f65",
    "increaseAllowance(address,uint256)": "39509351",
    "investorShares(address)": "d3690b6a",
    "loanAmounts(address)": "8f78e2f0",
    "loanFunds(address,uint256,(uint256,uint256)[])": "802acf0c",
    "maxDeposit(address)": "402d267d",
    "maxMint(address)": "c63d75b6",
    "maxRedeem(address)": "d905777e",
    "maxWithdraw(address)": "ce96cb77",
    "mint(uint256,address)": "94bf804d",
    "name()": "06fdde03",
    "onERC1155BatchReceived(address,address,uint256[],uint256[],bytes)": "bc197c81",
    "onERC1155Received(address,address,uint256,uint256,bytes)": "f23a6e61",
    "previewDeposit(uint256)": "ef8b30f7",
    "previewMint(uint256)": "b3d7f6b9",
    "previewRedeem(uint256)": "4cdad506",
    "previewWithdraw(uint256)": "0a28a477",
    "redeem(uint256,address,address)": "ba087652",
    "sellCrops((uint256,uint256)[],address)": "43e6de5b",
    "seniorInvestors()": "c48c3cbb",
    "supportsInterface(bytes4)": "01ffc9a7",
    "symbol()": "95d89b41",
    "totalAssets()": "01e1d114",
    "totalSupply()": "18160ddd",
    "transfer(address,uint256)": "a9059cbb",
    "transferFrom(address,address,uint256)": "23b872dd",
    "withdraw(uint256,address,address)": "b460af94"
  },
  "id": 42
}