{
  "abi": [
    {
      "inputs": [
        {
          "internalType": "address",
          "name": "quoteAsset_",
          "type": "address"
        }
      ],
      "stateMutability": "nonpayable",
      "type": "constructor"
    },
    {
      "anonymous": false,
      "inputs": [
        {
          "indexed": true,
          "internalType": "address",
          "name": "previousOwner",
          "type": "address"
        },
        {
          "indexed": true,
          "internalType": "address",
          "name": "newOwner",
          "type": "address"
        }
      ],
      "name": "OwnershipTransferred",
      "type": "event"
    },
    {
      "inputs": [
        {
          "internalType": "uint256",
          "name": "cropId",
          "type": "uint256"
        }
      ],
      "name": "lastUpdated",
      "outputs": [
        {
          "internalType": "uint256",
          "name": "timestamp",
          "type": "uint256"
        }
      ],
      "stateMutability": "view",
      "type": "function"
    },
    {
      "inputs": [],
      "name": "owner",
      "outputs": [
        {
          "internalType": "address",
          "name": "",
          "type": "address"
        }
      ],
      "stateMutability": "view",
      "type": "function"
    },
    {
      "inputs": [
        {
          "internalType": "uint256",
          "name": "cropId",
          "type": "uint256"
        }
      ],
      "name": "price",
      "outputs": [
        {
          "internalType": "uint256",
          "name": "price",
          "type": "uint256"
        }
      ],
      "stateMutability": "view",
      "type": "function"
    },
    {
      "inputs": [],
      "name": "quoteAsset",
      "outputs": [
        {
          "internalType": "address",
          "name": "",
          "type": "address"
        }
      ],
      "stateMutability": "view",
      "type": "function"
    },
    {
      "inputs": [],
      "name": "renounceOwnership",
      "outputs": [],
      "stateMutability": "nonpayable",
      "type": "function"
    },
    {
      "inputs": [
        {
          "internalType": "address",
          "name": "newOwner",
          "type": "address"
        }
      ],
      "name": "transferOwnership",
      "outputs": [],
      "stateMutability": "nonpayable",
      "type": "function"
    },
    {
      "inputs": [
        {
          "internalType": "uint256",
          "name": "cropId",
          "type": "uint256"
        },
        {
          "internalType": "uint256",
          "name": "newPrice",
          "type": "uint256"
        }
      ],
      "name": "updatePrice",
      "outputs": [],
      "stateMutability": "nonpayable",
      "type": "function"
    }
  ],
  "bytecode": {
    "object": "0x60a060405234801561001057600080fd5b5060405161043a38038061043a83398101604081905261002f91610099565b61003833610049565b6001600160a01b03166080526100c9565b600080546001600160a01b038381166001600160a01b0319831681178455604051919092169283917f8be0079c531659141344cd1fd0a4f28419497f9722a3daafe3b4186f6b6457e09190a35050565b6000602082840312156100ab57600080fd5b81516001600160a01b03811681146100c257600080fd5b9392505050565b6080516103566100e4600039600061012f01526103566000f3fe608060405234801561001057600080fd5b506004361061007d5760003560e01c806382367b2d1161005b57806382367b2d146100df5780638da5cb5b146100f2578063f2fde38b14610117578063fdf262b71461012a57600080fd5b806324a295221461008257806326a49e37146100b5578063715018a6146100d5575b600080fd5b6100a26100903660046102b5565b60016020526000908152604090205481565b6040519081526020015b60405180910390f35b6100a26100c33660046102b5565b60026020526000908152604090205481565b6100dd610151565b005b6100dd6100ed3660046102ce565b610165565b6000546001600160a01b03165b6040516001600160a01b0390911681526020016100ac565b6100dd6101253660046102f0565b61018d565b6100ff7f000000000000000000000000000000000000000000000000000000000000000081565b61015961020b565b6101636000610265565b565b61016d61020b565b600091825260026020908152604080842092909255600190529020429055565b61019561020b565b6001600160a01b0381166101ff5760405162461bcd60e51b815260206004820152602660248201527f4f776e61626c653a206e6577206f776e657220697320746865207a65726f206160448201526564647265737360d01b60648201526084015b60405180910390fd5b61020881610265565b50565b6000546001600160a01b031633146101635760405162461bcd60e51b815260206004820181905260248201527f4f776e61626c653a2063616c6c6572206973206e6f7420746865206f776e657260448201526064016101f6565b600080546001600160a01b038381166001600160a01b0319831681178455604051919092169283917f8be0079c531659141344cd1fd0a4f28419497f9722a3daafe3b4186f6b6457e09190a35050565b6000602082840312156102c757600080fd5b5035919050565b600080604083850312156102e157600080fd5b50508035926020909101359150565b60006020828403121561030257600080fd5b81356001600160a01b038116811461031957600080fd5b939250505056fea2646970667358221220f5381a72e4db2fe1b5ae164e1963557f5dd3ebec1815f56f940eaaf4e0f0e97c64736f6c63430008130033",
    "linkReferences": {}
  },
  "methodIdentifiers": {
    "lastUpdated(uint256)": "24a29522",
    "owner()": "8da5cb5b",
    "price(uint256)": "26a49e37",
    "quoteAsset()": "fdf262b7",
    "renounceOwnership()": "715018a6",
    "transferOwnership(address)": "f2fde38b",
    "updatePrice(uint256,uint256)": "82367b2d"
  },
  "id": 2
}