{
  "abi": [
    {
      "inputs": [
        {
          "internalType": "string",
          "name": "baseURI",
          "type": "string"
        }
      ],
      "stateMutability": "nonpayable",
      "type": "constructor"
    },
    {
      "inputs": [
        {
          "internalType": "address",
          "name": "burner",
          "type": "address"
        }
      ],
      "name": "AccountNotAllowedToBurn",
      "type": "error"
    },
    {
      "inputs": [
        {
          "internalType": "address",
          "name": "minter",
          "type": "address"
        }
      ],
      "name": "AccountNotAllowedToMint",
      "type": "error"
    },
    {
      "inputs": [
        {
          "internalType": "address",
          "name": "owner",
          "type": "address"
        }
      ],
      "name": "OwnerNotAllowedToApprove",
      "type": "error"
    },
    {
      "inputs": [
        {
          "internalType": "address",
          "name": "receipient",
          "type": "address"
        }
      ],
      "name": "RecipientNotAllowedToReceive",
      "type": "error"
    },
    {
      "inputs": [
        {
          "internalType": "address",
          "name": "sender",
          "type": "address"
        }
      ],
      "name": "SenderNotAllowedToTransfer",
      "type": "error"
    },
    {
      "anonymous": false,
      "inputs": [
        {
          "indexed": true,
          "internalType": "address",
          "name": "account",
          "type": "address"
        },
        {
          "indexed": true,
          "internalType": "address",
          "name": "operator",
          "type": "address"
        },
        {
          "indexed": false,
          "internalType": "bool",
          "name": "approved",
          "type": "bool"
        }
      ],
      "name": "ApprovalForAll",
      "type": "event"
    },
    {
      "anonymous": false,
      "inputs": [
        {
          "indexed": false,
          "internalType": "string",
          "name": "baseURI",
          "type": "string"
        }
      ],
      "name": "BaseUriUpdated",
      "type": "event"
    },
    {
      "anonymous": false,
      "inputs": [
        {
          "indexed": false,
          "internalType": "address",
          "name": "molecule",
          "type": "address"
        },
        {
          "indexed": false,
          "internalType": "enum ERC1155m.MoleculeType",
          "name": "mtype",
          "type": "uint8"
        }
      ],
      "name": "MoleculeUpdated",
      "type": "event"
    },
    {
      "anonymous": false,
      "inputs": [
        {
          "indexed": true,
          "internalType": "address",
          "name": "previousOwner",
          "type": "address"
        },
        {
          "indexed": true,
          "internalType": "address",
          "name": "newOwner",
          "type": "address"
        }
      ],
      "name": "OwnershipTransferred",
      "type": "event"
    },
    {
      "anonymous": false,
      "inputs": [
        {
          "indexed": true,
          "internalType": "address",
          "name": "operator",
          "type": "address"
        },
        {
          "indexed": true,
          "internalType": "address",
          "name": "from",
          "type": "address"
        },
        {
          "indexed": true,
          "internalType": "address",
          "name": "to",
          "type": "address"
        },
        {
          "indexed": false,
          "internalType": "uint256[]",
          "name": "ids",
          "type": "uint256[]"
        },
        {
          "indexed": false,
          "internalType": "uint256[]",
          "name": "values",
          "type": "uint256[]"
        }
      ],
      "name": "TransferBatch",
      "type": "event"
    },
    {
      "anonymous": false,
      "inputs": [
        {
          "indexed": true,
          "internalType": "address",
          "name": "operator",
          "type": "address"
        },
        {
          "indexed": true,
          "internalType": "address",
          "name": "from",
          "type": "address"
        },
        {
          "indexed": true,
          "internalType": "address",
          "name": "to",
          "type": "address"
        },
        {
          "indexed": false,
          "internalType": "uint256",
          "name": "id",
          "type": "uint256"
        },
        {
          "indexed": false,
          "internalType": "uint256",
          "name": "value",
          "type": "uint256"
        }
      ],
      "name": "TransferSingle",
      "type": "event"
    },
    {
      "anonymous": false,
      "inputs": [
        {
          "indexed": false,
          "internalType": "string",
          "name": "value",
          "type": "string"
        },
        {
          "indexed": true,
          "internalType": "uint256",
          "name": "id",
          "type": "uint256"
        }
      ],
      "name": "URI",
      "type": "event"
    },
    {
      "inputs": [
        {
          "internalType": "address",
          "name": "account",
          "type": "address"
        },
        {
          "internalType": "uint256",
          "name": "id",
          "type": "uint256"
        }
      ],
      "name": "balanceOf",
      "outputs": [
        {
          "internalType": "uint256",
          "name": "",
          "type": "uint256"
        }
      ],
      "stateMutability": "view",
      "type": "function"
    },
    {
      "inputs": [
        {
          "internalType": "address[]",
          "name": "accounts",
          "type": "address[]"
        },
        {
          "internalType": "uint256[]",
          "name": "ids",
          "type": "uint256[]"
        }
      ],
      "name": "balanceOfBatch",
      "outputs": [
        {
          "internalType": "uint256[]",
          "name": "",
          "type": "uint256[]"
        }
      ],
      "stateMutability": "view",
      "type": "function"
    },
    {
      "inputs": [
        {
          "internalType": "address",
          "name": "account",
          "type": "address"
        },
        {
          "internalType": "uint256",
          "name": "id",
          "type": "uint256"
        },
        {
          "internalType": "uint256",
          "name": "amount",
          "type": "uint256"
        }
      ],
      "name": "burn",
      "outputs": [],
      "stateMutability": "nonpayable",
      "type": "function"
    },
    {
      "inputs": [
        {
          "internalType": "uint256",
          "name": "id",
          "type": "uint256"
        }
      ],
      "name": "exists",
      "outputs": [
        {
          "internalType": "bool",
          "name": "",
          "type": "bool"
        }
      ],
      "stateMutability": "view",
      "type": "function"
    },
    {
      "inputs": [
        {
          "internalType": "address",
          "name": "account",
          "type": "address"
        },
        {
          "internalType": "address",
          "name": "operator",
          "type": "address"
        }
      ],
      "name": "isApprovedForAll",
      "outputs": [
        {
          "internalType": "bool",
          "name": "",
          "type": "bool"
        }
      ],
      "stateMutability": "view",
      "type": "function"
    },
    {
      "inputs": [
        {
          "internalType": "address",
          "name": "account",
          "type": "address"
        },
        {
          "internalType": "uint256",
          "name": "id",
          "type": "uint256"
        },
        {
          "internalType": "uint256",
          "name": "amount",
          "type": "uint256"
        },
        {
          "internalType": "bytes",
          "name": "data",
          "type": "bytes"
        }
      ],
      "name": "mint",
      "outputs": [],
      "stateMutability": "nonpayable",
      "type": "function"
    },
    {
      "inputs": [],
      "name": "owner",
      "outputs": [
        {
          "internalType": "address",
          "name": "",
          "type": "address"
        }
      ],
      "stateMutability": "view",
      "type": "function"
    },
    {
      "inputs": [],
      "name": "renounceOwnership",
      "outputs": [],
      "stateMutability": "nonpayable",
      "type": "function"
    },
    {
      "inputs": [
        {
          "internalType": "address",
          "name": "from",
          "type": "address"
        },
        {
          "internalType": "address",
          "name": "to",
          "type": "address"
        },
        {
          "internalType": "uint256[]",
          "name": "ids",
          "type": "uint256[]"
        },
        {
          "internalType": "uint256[]",
          "name": "amounts",
          "type": "uint256[]"
        },
        {
          "internalType": "bytes",
          "name": "data",
          "type": "bytes"
        }
      ],
      "name": "safeBatchTransferFrom",
      "outputs": [],
      "stateMutability": "nonpayable",
      "type": "function"
    },
    {
      "inputs": [
        {
          "internalType": "address",
          "name": "from",
          "type": "address"
        },
        {
          "internalType": "address",
          "name": "to",
          "type": "address"
        },
        {
          "internalType": "uint256",
          "name": "id",
          "type": "uint256"
        },
        {
          "internalType": "uint256",
          "name": "amount",
          "type": "uint256"
        },
        {
          "internalType": "bytes",
          "name": "data",
          "type": "bytes"
        }
      ],
      "name": "safeTransferFrom",
      "outputs": [],
      "stateMutability": "nonpayable",
      "type": "function"
    },
    {
      "inputs": [
        {
          "internalType": "address",
          "name": "operator",
          "type": "address"
        },
        {
          "internalType": "bool",
          "name": "approved",
          "type": "bool"
        }
      ],
      "name": "setApprovalForAll",
      "outputs": [],
      "stateMutability": "nonpayable",
      "type": "function"
    },
    {
      "inputs": [
        {
          "internalType": "string",
          "name": "baseURI",
          "type": "string"
        }
      ],
      "name": "setBaseURI",
      "outputs": [],
      "stateMutability": "nonpayable",
      "type": "function"
    },
    {
      "inputs": [
        {
          "internalType": "bytes4",
          "name": "interfaceId",
          "type": "bytes4"
        }
      ],
      "name": "supportsInterface",
      "outputs": [
        {
          "internalType": "bool",
          "name": "",
          "type": "bool"
        }
      ],
      "stateMutability": "view",
      "type": "function"
    },
    {
      "inputs": [
        {
          "internalType": "uint256",
          "name": "id",
          "type": "uint256"
        }
      ],
      "name": "totalSupply",
      "outputs": [
        {
          "internalType": "uint256",
          "name": "",
          "type": "uint256"
        }
      ],
      "stateMutability": "view",
      "type": "function"
    },
    {
      "inputs": [
        {
          "internalType": "address",
          "name": "newOwner",
          "type": "address"
        }
      ],
      "name": "transferOwnership",
      "outputs": [],
      "stateMutability": "nonpayable",
      "type": "function"
    },
    {
      "inputs": [
        {
          "internalType": "address",
          "name": "molecule",
          "type": "address"
        },
        {
          "internalType": "enum ERC1155m.MoleculeType",
          "name": "mtype",
          "type": "uint8"
        }
      ],
      "name": "updateMolecule",
      "outputs": [],
      "stateMutability": "nonpayable",
      "type": "function"
    },
    {
      "inputs": [
        {
          "internalType": "uint256",
          "name": "id",
          "type": "uint256"
        }
      ],
      "name": "uri",
      "outputs": [
        {
          "internalType": "string",
          "name": "",
          "type": "string"
        }
      ],
      "stateMutability": "view",
      "type": "function"
    }
  ],
  "bytecode": {
    "object": "0x60806040523480156200001157600080fd5b5060405162002797380380620027978339810160408190526200003491620001c2565b6040805160208101909152600081526200004e816200006c565b506200005a336200007e565b6200006581620000d0565b506200040a565b60026200007a828262000309565b5050565b600480546001600160a01b038381166001600160a01b0319831681179093556040519116919082907f8be0079c531659141344cd1fd0a4f28419497f9722a3daafe3b4186f6b6457e090600090a35050565b620000da62000125565b6005620000e8828262000309565b507f24a9152dc695ecc801ad580886331ee12d7aac0fa2ae341a5ae3c2ccae36cb4f816040516200011a9190620003d5565b60405180910390a150565b6004546001600160a01b03163314620001845760405162461bcd60e51b815260206004820181905260248201527f4f776e61626c653a2063616c6c6572206973206e6f7420746865206f776e6572604482015260640160405180910390fd5b565b634e487b7160e01b600052604160045260246000fd5b60005b83811015620001b95781810151838201526020016200019f565b50506000910152565b600060208284031215620001d557600080fd5b81516001600160401b0380821115620001ed57600080fd5b818401915084601f8301126200020257600080fd5b81518181111562000217576200021762000186565b604051601f8201601f19908116603f0116810190838211818310171562000242576200024262000186565b816040528281528760208487010111156200025c57600080fd5b6200026f8360208301602088016200019c565b979650505050505050565b600181811c908216806200028f57607f821691505b602082108103620002b057634e487b7160e01b600052602260045260246000fd5b50919050565b601f8211156200030457600081815260208120601f850160051c81016020861015620002df5750805b601f850160051c820191505b818110156200030057828155600101620002eb565b5050505b505050565b81516001600160401b0381111562000325576200032562000186565b6200033d816200033684546200027a565b84620002b6565b602080601f8311600181146200037557600084156200035c5750858301515b600019600386901b1c1916600185901b17855562000300565b600085815260208120601f198616915b82811015620003a65788860151825594840194600190910190840162000385565b5085821015620003c55787850151600019600388901b60f8161c191681555b5050505050600190811b01905550565b6020815260008251806020840152620003f68160408501602087016200019c565b601f01601f19169190910160400192915050565b61237d806200041a6000396000f3fe608060405234801561001057600080fd5b506004361061010a5760003560e01c806371f1d21b116100a2578063bd85b03911610071578063bd85b0391461023e578063e985e9c51461025e578063f242432a1461029a578063f2fde38b146102ad578063f5298aca146102c057600080fd5b806371f1d21b146101ea578063731133e9146101fd5780638da5cb5b14610210578063a22cb4651461022b57600080fd5b80634e1273f4116100de5780634e1273f41461018d5780634f558e79146101ad57806355f804b3146101cf578063715018a6146101e257600080fd5b8062fdd58e1461010f57806301ffc9a7146101355780630e89341c146101585780632eb2c2d614610178575b600080fd5b61012261011d3660046117eb565b6102d3565b6040519081526020015b60405180910390f35b61014861014336600461182b565b61036c565b604051901515815260200161012c565b61016b61016636600461184f565b6103bc565b60405161012c91906118b8565b61018b610186366004611a21565b6103f0565b005b6101a061019b366004611acb565b61043c565b60405161012c9190611bd1565b6101486101bb36600461184f565b600090815260036020526040902054151590565b61018b6101dd366004611be4565b610566565b61018b6105b5565b61018b6101f8366004611c35565b6105c9565b61018b61020b366004611c70565b6106ee565b6004546040516001600160a01b03909116815260200161012c565b61018b610239366004611cdf565b6107a7565b61012261024c36600461184f565b60009081526003602052604090205490565b61014861026c366004611d0b565b6001600160a01b03918216600090815260016020908152604080832093909416825291909152205460ff1690565b61018b6102a8366004611d3e565b6107b6565b61018b6102bb366004611da3565b6107fb565b61018b6102ce366004611dbe565b610874565b60006001600160a01b0383166103435760405162461bcd60e51b815260206004820152602a60248201527f455243313135353a2061646472657373207a65726f206973206e6f742061207660448201526930b634b21037bbb732b960b11b60648201526084015b60405180910390fd5b506000818152602081815260408083206001600160a01b03861684529091529020545b92915050565b60006001600160e01b03198216636cdb3d1360e11b148061039d57506001600160e01b031982166303a24d0760e21b145b8061036657506301ffc9a760e01b6001600160e01b0319831614610366565b606060056103c98361092b565b6040516020016103da929190611e2b565b6040516020818303038152906040529050919050565b6001600160a01b03851633148061040c575061040c853361026c565b6104285760405162461bcd60e51b815260040161033a90611ec2565b61043585858585856109be565b5050505050565b606081518351146104a15760405162461bcd60e51b815260206004820152602960248201527f455243313135353a206163636f756e747320616e6420696473206c656e677468604482015268040dad2e6dac2e8c6d60bb1b606482015260840161033a565b6000835167ffffffffffffffff8111156104bd576104bd6118cb565b6040519080825280602002602001820160405280156104e6578160200160208202803683370190505b50905060005b845181101561055e5761053185828151811061050a5761050a611f10565b602002602001015185838151811061052457610524611f10565b60200260200101516102d3565b82828151811061054357610543611f10565b602090810291909101015261055781611f3c565b90506104ec565b509392505050565b61056e610ba9565b600561057a8282611f9b565b507f24a9152dc695ecc801ad580886331ee12d7aac0fa2ae341a5ae3c2ccae36cb4f816040516105aa91906118b8565b60405180910390a150565b6105bd610ba9565b6105c76000610c03565b565b6105d1610ba9565b60008160038111156105e5576105e561205b565b0361060a57600680546001600160a01b0319166001600160a01b0384161790556106b1565b600181600381111561061e5761061e61205b565b0361064357600780546001600160a01b0319166001600160a01b0384161790556106b1565b60028160038111156106575761065761205b565b0361067c57600880546001600160a01b0319166001600160a01b0384161790556106b1565b60038160038111156106905761069061205b565b036106b157600980546001600160a01b0319166001600160a01b0384161790555b7f0404dc9d5880e8c2254d796c0a1b6574651c1164d52849b4369583cb5247fd8182826040516106e2929190612071565b60405180910390a15050565b6008546001600160a01b03161561079557600854604051631846d2f560e31b81526001600160a01b0386811660048301529091169063c23697a890602401602060405180830381865afa158015610749573d6000803e3d6000fd5b505050506040513d601f19601f8201168201806040525081019061076d91906120ac565b61079557604051630bc4f68f60e31b81526001600160a01b038516600482015260240161033a565b6107a184848484610c55565b50505050565b6107b2338383610d78565b5050565b6001600160a01b0385163314806107d257506107d2853361026c565b6107ee5760405162461bcd60e51b815260040161033a90611ec2565b6104358585858585610e2a565b610803610ba9565b6001600160a01b0381166108685760405162461bcd60e51b815260206004820152602660248201527f4f776e61626c653a206e6577206f776e657220697320746865207a65726f206160448201526564647265737360d01b606482015260840161033a565b61087181610c03565b50565b6007546001600160a01b03161561091b57600754604051631846d2f560e31b81526001600160a01b0385811660048301529091169063c23697a890602401602060405180830381865afa1580156108cf573d6000803e3d6000fd5b505050506040513d601f19601f820116820180604052508101906108f391906120ac565b61091b576040516351308f3760e11b81526001600160a01b038416600482015260240161033a565b610926838383610f62565b505050565b60606000610938836110f2565b600101905060008167ffffffffffffffff811115610958576109586118cb565b6040519080825280601f01601f191660200182016040528015610982576020820181803683370190505b5090508181016020015b600019016f181899199a1a9b1b9c1cb0b131b232b360811b600a86061a8153600a850494508461098c57509392505050565b8151835114610a205760405162461bcd60e51b815260206004820152602860248201527f455243313135353a2069647320616e6420616d6f756e7473206c656e677468206044820152670dad2e6dac2e8c6d60c31b606482015260840161033a565b6001600160a01b038416610a465760405162461bcd60e51b815260040161033a906120c9565b33610a558187878787876111ca565b60005b8451811015610b3b576000858281518110610a7557610a75611f10565b602002602001015190506000858381518110610a9357610a93611f10565b602090810291909101810151600084815280835260408082206001600160a01b038e168352909352919091205490915081811015610ae35760405162461bcd60e51b815260040161033a9061210e565b6000838152602081815260408083206001600160a01b038e8116855292528083208585039055908b16825281208054849290610b20908490612158565b9250508190555050505080610b3490611f3c565b9050610a58565b50846001600160a01b0316866001600160a01b0316826001600160a01b03167f4a39dc06d4c0dbc64b70af90fd698a233a518aa5d07e595d983b8c0526c8f7fb8787604051610b8b92919061216b565b60405180910390a4610ba1818787878787611315565b505050505050565b6004546001600160a01b031633146105c75760405162461bcd60e51b815260206004820181905260248201527f4f776e61626c653a2063616c6c6572206973206e6f7420746865206f776e6572604482015260640161033a565b600480546001600160a01b038381166001600160a01b0319831681179093556040519116919082907f8be0079c531659141344cd1fd0a4f28419497f9722a3daafe3b4186f6b6457e090600090a35050565b6001600160a01b038416610cb55760405162461bcd60e51b815260206004820152602160248201527f455243313135353a206d696e7420746f20746865207a65726f206164647265736044820152607360f81b606482015260840161033a565b336000610cc185611470565b90506000610cce85611470565b9050610cdf836000898585896111ca565b6000868152602081815260408083206001600160a01b038b16845290915281208054879290610d0f908490612158565b909155505060408051878152602081018790526001600160a01b03808a1692600092918716917fc3d58168c5ae7397731d063d5bbf3d657854427343f4c083240f7aacaa2d0f62910160405180910390a4610d6f836000898989896114bb565b50505050505050565b6006546001600160a01b031615610e1f57600654604051631846d2f560e31b81526001600160a01b0384811660048301529091169063c23697a890602401602060405180830381865afa158015610dd3573d6000803e3d6000fd5b505050506040513d601f19601f82011682018060405250810190610df791906120ac565b610e1f5760405163c137989560e01b81526001600160a01b038316600482015260240161033a565b610926838383611576565b6001600160a01b038416610e505760405162461bcd60e51b815260040161033a906120c9565b336000610e5c85611470565b90506000610e6985611470565b9050610e798389898585896111ca565b6000868152602081815260408083206001600160a01b038c16845290915290205485811015610eba5760405162461bcd60e51b815260040161033a9061210e565b6000878152602081815260408083206001600160a01b038d8116855292528083208985039055908a16825281208054889290610ef7908490612158565b909155505060408051888152602081018890526001600160a01b03808b16928c821692918816917fc3d58168c5ae7397731d063d5bbf3d657854427343f4c083240f7aacaa2d0f62910160405180910390a4610f57848a8a8a8a8a6114bb565b505050505050505050565b6001600160a01b038316610fc45760405162461bcd60e51b815260206004820152602360248201527f455243313135353a206275726e2066726f6d20746865207a65726f206164647260448201526265737360e81b606482015260840161033a565b336000610fd084611470565b90506000610fdd84611470565b9050610ffd838760008585604051806020016040528060008152506111ca565b6000858152602081815260408083206001600160a01b038a1684529091529020548481101561107a5760405162461bcd60e51b8152602060048201526024808201527f455243313135353a206275726e20616d6f756e7420657863656564732062616c604482015263616e636560e01b606482015260840161033a565b6000868152602081815260408083206001600160a01b038b81168086529184528285208a8703905582518b81529384018a90529092908816917fc3d58168c5ae7397731d063d5bbf3d657854427343f4c083240f7aacaa2d0f62910160405180910390a4604080516020810190915260009052610d6f565b60008072184f03e93ff9f4daa797ed6e38ed64bf6a1f0160401b83106111315772184f03e93ff9f4daa797ed6e38ed64bf6a1f0160401b830492506040015b6d04ee2d6d415b85acef8100000000831061115d576d04ee2d6d415b85acef8100000000830492506020015b662386f26fc10000831061117b57662386f26fc10000830492506010015b6305f5e1008310611193576305f5e100830492506008015b61271083106111a757612710830492506004015b606483106111b9576064830492506002015b600a83106103665760010192915050565b6009546001600160a01b03161561130757600954604051631846d2f560e31b81526001600160a01b0387811660048301529091169063c23697a890602401602060405180830381865afa158015611225573d6000803e3d6000fd5b505050506040513d601f19601f8201168201806040525081019061124991906120ac565b61127157604051637e6b82a360e11b81526001600160a01b038616600482015260240161033a565b600954604051631846d2f560e31b81526001600160a01b0386811660048301529091169063c23697a890602401602060405180830381865afa1580156112bb573d6000803e3d6000fd5b505050506040513d601f19601f820116820180604052508101906112df91906120ac565b6113075760405163d4fcf1cf60e01b81526001600160a01b038516600482015260240161033a565b610ba1868686868686611656565b6001600160a01b0384163b15610ba15760405163bc197c8160e01b81526001600160a01b0385169063bc197c81906113599089908990889088908890600401612199565b6020604051808303816000875af1925050508015611394575060408051601f3d908101601f19168201909252611391918101906121f7565b60015b611440576113a0612214565b806308c379a0036113d957506113b4612230565b806113bf57506113db565b8060405162461bcd60e51b815260040161033a91906118b8565b505b60405162461bcd60e51b815260206004820152603460248201527f455243313135353a207472616e7366657220746f206e6f6e2d455243313135356044820152732932b1b2b4bb32b91034b6b83632b6b2b73a32b960611b606482015260840161033a565b6001600160e01b0319811663bc197c8160e01b14610d6f5760405162461bcd60e51b815260040161033a906122ba565b604080516001808252818301909252606091600091906020808301908036833701905050905082816000815181106114aa576114aa611f10565b602090810291909101015292915050565b6001600160a01b0384163b15610ba15760405163f23a6e6160e01b81526001600160a01b0385169063f23a6e61906114ff9089908990889088908890600401612302565b6020604051808303816000875af192505050801561153a575060408051601f3d908101601f19168201909252611537918101906121f7565b60015b611546576113a0612214565b6001600160e01b0319811663f23a6e6160e01b14610d6f5760405162461bcd60e51b815260040161033a906122ba565b816001600160a01b0316836001600160a01b0316036115e95760405162461bcd60e51b815260206004820152602960248201527f455243313135353a2073657474696e6720617070726f76616c20737461747573604482015268103337b91039b2b63360b91b606482015260840161033a565b6001600160a01b03838116600081815260016020908152604080832094871680845294825291829020805460ff191686151590811790915591519182527f17307eab39ab6107e8899845ad3d59bd9653f200f220920489ca2b5937696c31910160405180910390a3505050565b6001600160a01b0385166116dd5760005b83518110156116db5782818151811061168257611682611f10565b6020026020010151600360008684815181106116a0576116a0611f10565b6020026020010151815260200190815260200160002060008282546116c59190612158565b909155506116d4905081611f3c565b9050611667565b505b6001600160a01b038416610ba15760005b8351811015610d6f57600084828151811061170b5761170b611f10565b60200260200101519050600084838151811061172957611729611f10565b60200260200101519050600060036000848152602001908152602001600020549050818110156117ac5760405162461bcd60e51b815260206004820152602860248201527f455243313135353a206275726e20616d6f756e74206578636565647320746f74604482015267616c537570706c7960c01b606482015260840161033a565b600092835260036020526040909220910390556117c881611f3c565b90506116ee565b80356001600160a01b03811681146117e657600080fd5b919050565b600080604083850312156117fe57600080fd5b611807836117cf565b946020939093013593505050565b6001600160e01b03198116811461087157600080fd5b60006020828403121561183d57600080fd5b813561184881611815565b9392505050565b60006020828403121561186157600080fd5b5035919050565b60005b8381101561188357818101518382015260200161186b565b50506000910152565b600081518084526118a4816020860160208601611868565b601f01601f19169290920160200192915050565b602081526000611848602083018461188c565b634e487b7160e01b600052604160045260246000fd5b601f8201601f1916810167ffffffffffffffff81118282101715611907576119076118cb565b6040525050565b600067ffffffffffffffff821115611928576119286118cb565b5060051b60200190565b600082601f83011261194357600080fd5b813560206119508261190e565b60405161195d82826118e1565b83815260059390931b850182019282810191508684111561197d57600080fd5b8286015b848110156119985780358352918301918301611981565b509695505050505050565b600067ffffffffffffffff8311156119bd576119bd6118cb565b6040516119d4601f8501601f1916602001826118e1565b8091508381528484840111156119e957600080fd5b83836020830137600060208583010152509392505050565b600082601f830112611a1257600080fd5b611848838335602085016119a3565b600080600080600060a08688031215611a3957600080fd5b611a42866117cf565b9450611a50602087016117cf565b9350604086013567ffffffffffffffff80821115611a6d57600080fd5b611a7989838a01611932565b94506060880135915080821115611a8f57600080fd5b611a9b89838a01611932565b93506080880135915080821115611ab157600080fd5b50611abe88828901611a01565b9150509295509295909350565b60008060408385031215611ade57600080fd5b823567ffffffffffffffff80821115611af657600080fd5b818501915085601f830112611b0a57600080fd5b81356020611b178261190e565b604051611b2482826118e1565b83815260059390931b8501820192828101915089841115611b4457600080fd5b948201945b83861015611b6957611b5a866117cf565b82529482019490820190611b49565b96505086013592505080821115611b7f57600080fd5b50611b8c85828601611932565b9150509250929050565b600081518084526020808501945080840160005b83811015611bc657815187529582019590820190600101611baa565b509495945050505050565b6020815260006118486020830184611b96565b600060208284031215611bf657600080fd5b813567ffffffffffffffff811115611c0d57600080fd5b8201601f81018413611c1e57600080fd5b611c2d848235602084016119a3565b949350505050565b60008060408385031215611c4857600080fd5b611c51836117cf565b9150602083013560048110611c6557600080fd5b809150509250929050565b60008060008060808587031215611c8657600080fd5b611c8f856117cf565b93506020850135925060408501359150606085013567ffffffffffffffff811115611cb957600080fd5b611cc587828801611a01565b91505092959194509250565b801515811461087157600080fd5b60008060408385031215611cf257600080fd5b611cfb836117cf565b91506020830135611c6581611cd1565b60008060408385031215611d1e57600080fd5b611d27836117cf565b9150611d35602084016117cf565b90509250929050565b600080600080600060a08688031215611d5657600080fd5b611d5f866117cf565b9450611d6d602087016117cf565b93506040860135925060608601359150608086013567ffffffffffffffff811115611d9757600080fd5b611abe88828901611a01565b600060208284031215611db557600080fd5b611848826117cf565b600080600060608486031215611dd357600080fd5b611ddc846117cf565b95602085013595506040909401359392505050565b600181811c90821680611e0557607f821691505b602082108103611e2557634e487b7160e01b600052602260045260246000fd5b50919050565b6000808454611e3981611df1565b60018281168015611e515760018114611e6657611e95565b60ff1984168752821515830287019450611e95565b8860005260208060002060005b85811015611e8c5781548a820152908401908201611e73565b50505082870194505b505050508351611ea9818360208801611868565b64173539b7b760d91b9101908152600501949350505050565b6020808252602e908201527f455243313135353a2063616c6c6572206973206e6f7420746f6b656e206f776e60408201526d195c881bdc88185c1c1c9bdd995960921b606082015260800190565b634e487b7160e01b600052603260045260246000fd5b634e487b7160e01b600052601160045260246000fd5b600060018201611f4e57611f4e611f26565b5060010190565b601f82111561092657600081815260208120601f850160051c81016020861015611f7c5750805b601f850160051c820191505b81811015610ba157828155600101611f88565b815167ffffffffffffffff811115611fb557611fb56118cb565b611fc981611fc38454611df1565b84611f55565b602080601f831160018114611ffe5760008415611fe65750858301515b600019600386901b1c1916600185901b178555610ba1565b600085815260208120601f198616915b8281101561202d5788860151825594840194600190910190840161200e565b508582101561204b5787850151600019600388901b60f8161c191681555b5050505050600190811b01905550565b634e487b7160e01b600052602160045260246000fd5b6001600160a01b0383168152604081016004831061209f57634e487b7160e01b600052602160045260246000fd5b8260208301529392505050565b6000602082840312156120be57600080fd5b815161184881611cd1565b60208082526025908201527f455243313135353a207472616e7366657220746f20746865207a65726f206164604082015264647265737360d81b606082015260800190565b6020808252602a908201527f455243313135353a20696e73756666696369656e742062616c616e636520666f60408201526939103a3930b739b332b960b11b606082015260800190565b8082018082111561036657610366611f26565b60408152600061217e6040830185611b96565b82810360208401526121908185611b96565b95945050505050565b6001600160a01b0386811682528516602082015260a0604082018190526000906121c590830186611b96565b82810360608401526121d78186611b96565b905082810360808401526121eb818561188c565b98975050505050505050565b60006020828403121561220957600080fd5b815161184881611815565b600060033d111561222d5760046000803e5060005160e01c5b90565b600060443d101561223e5790565b6040516003193d81016004833e81513d67ffffffffffffffff816024840111818411171561226e57505050505090565b82850191508151818111156122865750505050505090565b843d87010160208285010111156122a05750505050505090565b6122af602082860101876118e1565b509095945050505050565b60208082526028908201527f455243313135353a204552433131353552656365697665722072656a656374656040820152676420746f6b656e7360c01b606082015260800190565b6001600160a01b03868116825285166020820152604081018490526060810183905260a06080820181905260009061233c9083018461188c565b97965050505050505056fea264697066735822122014f2f5a64368d53badd07bacdca9d38d736cad3ce3200531dcb636d3889f13c564736f6c63430008130033",
    "linkReferences": {}
  },
  "methodIdentifiers": {
    "balanceOf(address,uint256)": "00fdd58e",
    "balanceOfBatch(address[],uint256[])": "4e1273f4",
    "burn(address,uint256,uint256)": "f5298aca",
    "exists(uint256)": "4f558e79",
    "isApprovedForAll(address,address)": "e985e9c5",
    "mint(address,uint256,uint256,bytes)": "731133e9",
    "owner()": "8da5cb5b",
    "renounceOwnership()": "715018a6",
    "safeBatchTransferFrom(address,address,uint256[],uint256[],bytes)": "2eb2c2d6",
    "safeTransferFrom(address,address,uint256,uint256,bytes)": "f242432a",
    "setApprovalForAll(address,bool)": "a22cb465",
    "setBaseURI(string)": "55f804b3",
    "supportsInterface(bytes4)": "01ffc9a7",
    "totalSupply(uint256)": "bd85b039",
    "transferOwnership(address)": "f2fde38b",
    "updateMolecule(address,uint8)": "71f1d21b",
    "uri(uint256)": "0e89341c"
  },
  "id": 13
}